{
  "contractName": "Ballot",
  "abi": [
    {
      "constant": false,
      "inputs": [
        {
          "name": "proposal",
          "type": "uint256"
        }
      ],
      "name": "vote",
      "outputs": [],
      "payable": false,
      "type": "function",
      "stateMutability": "nonpayable"
    },
    {
      "constant": true,
      "inputs": [
        {
          "name": "",
          "type": "uint256"
        }
      ],
      "name": "proposals",
      "outputs": [
        {
          "name": "name",
          "type": "bytes32"
        },
        {
          "name": "voteCount",
          "type": "uint256"
        }
      ],
      "payable": false,
      "type": "function",
      "stateMutability": "view"
    },
    {
      "constant": true,
      "inputs": [],
      "name": "chairperson",
      "outputs": [
        {
          "name": "",
          "type": "address"
        }
      ],
      "payable": false,
      "type": "function",
      "stateMutability": "view"
    },
    {
      "constant": false,
      "inputs": [
        {
          "name": "to",
          "type": "address"
        }
      ],
      "name": "delegate",
      "outputs": [],
      "payable": false,
      "type": "function",
      "stateMutability": "nonpayable"
    },
    {
      "constant": true,
      "inputs": [],
      "name": "winningProposal",
      "outputs": [
        {
          "name": "winningProposal",
          "type": "uint256"
        }
      ],
      "payable": false,
      "type": "function",
      "stateMutability": "view"
    },
    {
      "constant": false,
      "inputs": [
        {
          "name": "voter",
          "type": "address"
        }
      ],
      "name": "giveRightToVote",
      "outputs": [
        {
          "name": "b",
          "type": "bool"
        }
      ],
      "payable": false,
      "type": "function",
      "stateMutability": "nonpayable"
    },
    {
      "constant": true,
      "inputs": [
        {
          "name": "",
          "type": "address"
        }
      ],
      "name": "voters",
      "outputs": [
        {
          "name": "weight",
          "type": "uint256"
        },
        {
          "name": "voted",
          "type": "bool"
        },
        {
          "name": "delegate",
          "type": "address"
        },
        {
          "name": "vote",
          "type": "uint256"
        }
      ],
      "payable": false,
      "type": "function",
      "stateMutability": "view"
    },
    {
      "inputs": [
        {
          "name": "proposalNames",
          "type": "bytes32[]"
        }
      ],
      "payable": false,
      "type": "constructor",
      "stateMutability": "nonpayable"
    }
  ],
  "bytecode": "0x6060604052341561000f57600080fd5b604051610ace380380610ace833981016040528080518201919050506000336000806101000a81548173ffffffffffffffffffffffffffffffffffffffff021916908373ffffffffffffffffffffffffffffffffffffffff16021790555060018060008060009054906101000a900473ffffffffffffffffffffffffffffffffffffffff1673ffffffffffffffffffffffffffffffffffffffff1673ffffffffffffffffffffffffffffffffffffffff16815260200190815260200160002060000181905550600090505b815181101561016757600280548060010182816100f7919061016e565b916000526020600020906002020160006040805190810160405280868681518110151561012057fe5b9060200190602002015160001916815260200160008152509091909150600082015181600001906000191690556020820151816001015550505080806001019150506100da565b50506101cf565b81548183558181151161019b5760020281600202836000526020600020918201910161019a91906101a0565b5b505050565b6101cc91905b808211156101c8576000808201600090556001820160009055506002016101a6565b5090565b90565b6108f0806101de6000396000f300606060405260043610610083576000357c0100000000000000000000000000000000000000000000000000000000900463ffffffff1680630121b93f14610088578063013cf08b146100ab5780632e4176cf146100f15780635c19a95c14610146578063609ff1bd1461017f5780639e7b8d61146101a8578063a3ec138d146101f9575b600080fd5b341561009357600080fd5b6100a9600480803590602001909190505061028b565b005b34156100b657600080fd5b6100cc6004808035906020019091905050610346565b6040518083600019166000191681526020018281526020019250505060405180910390f35b34156100fc57600080fd5b610104610379565b604051808273ffffffffffffffffffffffffffffffffffffffff1673ffffffffffffffffffffffffffffffffffffffff16815260200191505060405180910390f35b341561015157600080fd5b61017d600480803573ffffffffffffffffffffffffffffffffffffffff1690602001909190505061039e565b005b341561018a57600080fd5b6101926106e3565b6040518082815260200191505060405180910390f35b34156101b357600080fd5b6101df600480803573ffffffffffffffffffffffffffffffffffffffff1690602001909190505061075e565b604051808215151515815260200191505060405180910390f35b341561020457600080fd5b610230600480803573ffffffffffffffffffffffffffffffffffffffff16906020019091905050610867565b60405180858152602001841515151581526020018373ffffffffffffffffffffffffffffffffffffffff1673ffffffffffffffffffffffffffffffffffffffff16815260200182815260200194505050505060405180910390f35b6000600160003373ffffffffffffffffffffffffffffffffffffffff1673ffffffffffffffffffffffffffffffffffffffff16815260200190815260200160002090508060010160009054906101000a900460ff16156102ea57600080fd5b60018160010160006101000a81548160ff021916908315150217905550818160020181905550806000015460028381548110151561032457fe5b9060005260206000209060020201600101600082825401925050819055505050565b60028181548110151561035557fe5b90600052602060002090600202016000915090508060000154908060010154905082565b6000809054906101000a900473ffffffffffffffffffffffffffffffffffffffff1681565b600080600160003373ffffffffffffffffffffffffffffffffffffffff1673ffffffffffffffffffffffffffffffffffffffff16815260200190815260200160002091508160010160009054906101000a900460ff16156103fe57600080fd5b5b600073ffffffffffffffffffffffffffffffffffffffff16600160008573ffffffffffffffffffffffffffffffffffffffff1673ffffffffffffffffffffffffffffffffffffffff16815260200190815260200160002060010160019054906101000a900473ffffffffffffffffffffffffffffffffffffffff1673ffffffffffffffffffffffffffffffffffffffff161415801561052c57503373ffffffffffffffffffffffffffffffffffffffff16600160008573ffffffffffffffffffffffffffffffffffffffff1673ffffffffffffffffffffffffffffffffffffffff16815260200190815260200160002060010160019054906101000a900473ffffffffffffffffffffffffffffffffffffffff1673ffffffffffffffffffffffffffffffffffffffff1614155b1561059b57600160008473ffffffffffffffffffffffffffffffffffffffff1673ffffffffffffffffffffffffffffffffffffffff16815260200190815260200160002060010160019054906101000a900473ffffffffffffffffffffffffffffffffffffffff1692506103ff565b3373ffffffffffffffffffffffffffffffffffffffff168373ffffffffffffffffffffffffffffffffffffffff1614156105d457600080fd5b60018260010160006101000a81548160ff021916908315150217905550828260010160016101000a81548173ffffffffffffffffffffffffffffffffffffffff021916908373ffffffffffffffffffffffffffffffffffffffff160217905550600160008473ffffffffffffffffffffffffffffffffffffffff1673ffffffffffffffffffffffffffffffffffffffff16815260200190815260200160002090508060010160009054906101000a900460ff16156106c7578160000154600282600201548154811015156106a457fe5b9060005260206000209060020201600101600082825401925050819055506106de565b816000015481600001600082825401925050819055505b505050565b6000806000809150600090505b600280549050811015610759578160028281548110151561070d57fe5b906000526020600020906002020160010154111561074c5760028181548110151561073457fe5b90600052602060002090600202016001015491508092505b80806001019150506106f0565b505090565b60008060009054906101000a900473ffffffffffffffffffffffffffffffffffffffff1673ffffffffffffffffffffffffffffffffffffffff163373ffffffffffffffffffffffffffffffffffffffff161415806108085750600160008373ffffffffffffffffffffffffffffffffffffffff1673ffffffffffffffffffffffffffffffffffffffff16815260200190815260200160002060010160009054906101000a900460ff165b156108165760009050610862565b60018060008473ffffffffffffffffffffffffffffffffffffffff1673ffffffffffffffffffffffffffffffffffffffff16815260200190815260200160002060000181905550600190505b919050565b60016020528060005260406000206000915090508060000154908060010160009054906101000a900460ff16908060010160019054906101000a900473ffffffffffffffffffffffffffffffffffffffff169080600201549050845600a165627a7a72305820799fd1c6b17827d3c6b4b2e5526bb0df04a38273d497561f9d2b9e6a1e18396a0029",
  "source": "pragma solidity ^0.4.4;\n\ncontract Ballot {\n   //一个选民的构造体\n    struct Voter {\n        uint weight; // 权重（即他可以投几票）\n        bool voted;  //是否已经投过票\n        address delegate; // 代表地址（他可以代表某个人进行投票）\n        uint vote;   // 当前投票的索引\n    }\n\n    // 投票的提案的构造体\n    struct Proposal\n    {\n        bytes32 name;   // 提案名称\n        uint voteCount; //获得的票数\n    }\n\n    address public chairperson;//会议主席\n\n    //地址 -选民 的map\n    mapping(address => Voter) public voters;\n\n    // 投票种类的动态数组\n    Proposal[] public proposals;\n\n    ///构造函数\n    function Ballot(bytes32[] proposalNames) {\n        chairperson = msg.sender;//初始化会议主席\n        voters[chairperson].weight = 1;\n\n       //初始化所有的提案\n        for (uint i = 0; i < proposalNames.length; i++) {\n\n            proposals.push(Proposal({\n                name: proposalNames[i],\n                voteCount: 0\n            }));\n        }\n    }\n\n    // 给予投票权\n    function giveRightToVote(address voter) returns (bool b) {\n        if (msg.sender != chairperson || voters[voter].voted) {\n            //对于会议主席和已经投过票的选民这里不处理\n            return false;\n        }\n        voters[voter].weight = 1;\n        return true;\n    }\n\n    /// 投票权转移函数\n    function delegate(address to) {\n        // 投票权转移的发起人\n        Voter sender = voters[msg.sender];\n        if (sender.voted)\n            throw;\n\n      //递归找到没有转移投票权的  选民\n        while (\n            voters[to].delegate != address(0) &&\n            voters[to].delegate != msg.sender\n        ) {\n            to = voters[to].delegate;\n        }\n\n\n        if (to == msg.sender) {\n            throw;\n        }\n\n\n       //将发起人设置为已经投过票的状态\n        sender.voted = true;\n        //将代表设置为刚才递归获取的选民\n        sender.delegate = to;\n        Voter delegate = voters[to];\n        if (delegate.voted) {\n            //如果代表已经投过票就在他投票的提案的票数增加\n            proposals[delegate.vote].voteCount += sender.weight;\n        }\n        else {\n           //将代表的的票数增加\n            delegate.weight += sender.weight;\n        }\n    }\n\n    /// 投票函数\n    function vote(uint proposal) {\n        Voter sender = voters[msg.sender];\n        if (sender.voted)\n            throw;\n        sender.voted = true;\n        sender.vote = proposal;\n\n        //将投的提案票数增加\n        proposals[proposal].voteCount += sender.weight;\n    }\n\n    ///获得票数最多的提案\n    function winningProposal() constant returns (uint winningProposal) {\n        uint winningVoteCount = 0;\n        for (uint p = 0; p < proposals.length; p++) {\n            if (proposals[p].voteCount > winningVoteCount) {\n                winningVoteCount = proposals[p].voteCount;\n                winningProposal = p;\n            }\n        }\n    }\n}\n",
  "sourcePath": "/Users/sujianwei20/Desktop/conference_dapp/contracts/Ballot.sol",
  "compiler": {
    "name": "solc",
    "version": "0.4.18+commit.9cf6e910.Emscripten.clang"
  },
  "schemaVersion": "1.0.1",
  "updatedAt": "2018-01-01T02:48:58.971Z"
}