{
  "contractName": "Decode",
  "abi": [
    {
      "constant": false,
      "inputs": [
        {
          "name": "source",
          "type": "bytes"
        }
      ],
      "name": "bytesToByes32",
      "outputs": [
        {
          "name": "result",
          "type": "bytes32"
        }
      ],
      "payable": false,
      "stateMutability": "nonpayable",
      "type": "function"
    },
    {
      "constant": false,
      "inputs": [
        {
          "name": "r",
          "type": "bytes32"
        },
        {
          "name": "s",
          "type": "bytes32"
        },
        {
          "name": "v1",
          "type": "bytes1"
        }
      ],
      "name": "ecrecoverDecode",
      "outputs": [
        {
          "name": "addr",
          "type": "address"
        }
      ],
      "payable": false,
      "stateMutability": "nonpayable",
      "type": "function"
    },
    {
      "constant": false,
      "inputs": [],
      "name": "decode",
      "outputs": [
        {
          "name": "",
          "type": "address"
        }
      ],
      "payable": false,
      "stateMutability": "nonpayable",
      "type": "function"
    },
    {
      "constant": false,
      "inputs": [
        {
          "name": "data",
          "type": "bytes"
        },
        {
          "name": "start",
          "type": "uint256"
        },
        {
          "name": "len",
          "type": "uint256"
        }
      ],
      "name": "slice",
      "outputs": [
        {
          "name": "",
          "type": "bytes"
        }
      ],
      "payable": false,
      "stateMutability": "nonpayable",
      "type": "function"
    }
  ],
  "bytecode": "0x6060604052341561000f57600080fd5b6106128061001e6000396000f300606060405260043610610062576000357c0100000000000000000000000000000000000000000000000000000000900463ffffffff1680631f27ba74146100675780639f9d5793146100e0578063c0f8940c1461017f578063e0041396146101d4575b600080fd5b341561007257600080fd5b6100c2600480803590602001908201803590602001908080601f016020809104026020016040519081016040528093929190818152602001838380828437820191505050505050919050506102bc565b60405180826000191660001916815260200191505060405180910390f35b34156100eb57600080fd5b61013d600480803560001916906020019091908035600019169060200190919080357effffffffffffffffffffffffffffffffffffffffffffffffffffffffffffff19169060200190919050506102ca565b604051808273ffffffffffffffffffffffffffffffffffffffff1673ffffffffffffffffffffffffffffffffffffffff16815260200191505060405180910390f35b341561018a57600080fd5b61019261039f565b604051808273ffffffffffffffffffffffffffffffffffffffff1673ffffffffffffffffffffffffffffffffffffffff16815260200191505060405180910390f35b34156101df57600080fd5b610241600480803590602001908201803590602001908080601f016020809104026020016040519081016040528093929190818152602001838380828437820191505050505050919080359060200190919080359060200190919050506104dc565b6040518080602001828103825283818151815260200191508051906020019080838360005b83811015610281578082015181840152602081019050610266565b50505050905090810190601f1680156102ae5780820380516001836020036101000a031916815260200191505b509250505060405180910390f35b600060208201519050919050565b600080601b837f0100000000000000000000000000000000000000000000000000000000000000900401905060018186866040516000815260200160405260006040516020015260405180807f4e03657aea45a94fc7d47ba826c8d667c0d1e6e33a64a036ec44f58fa12d6c458152506020018460ff1660ff168152602001836000191660001916815260200182600019166000191681526020019350505050602060405160208103908084039060008661646e5a03f1151561038c57600080fd5b5050602060405103519150509392505050565b60006103a96105d2565b6000806000608060405190810160405280604181526020017f6e23c2bf8b734b3bbd319899b1d7b209bacc781d777a1c3916c22ecab6e7048381526020017f262ee8d51c337bef7b06123bf76f08882fe7e37334fdfee69f8c9419d1f428b181526020017f0100000000000000000000000000000000000000000000000000000000000000815250935061044861044385600060206104dc565b6102bc565b925061045e610459856020806104dc565b6102bc565b915061046d84604060016104dc565b600081518110151561047b57fe5b9060200101517f010000000000000000000000000000000000000000000000000000000000000090047f01000000000000000000000000000000000000000000000000000000000000000290506104d38383836102ca565b94505050505090565b6104e46105d2565b6104ec6105d2565b6000836040518059106104fc5750595b9080825280601f01601f19166020018201604052509150600090505b838110156105c6578585820181518110151561053057fe5b9060200101517f010000000000000000000000000000000000000000000000000000000000000090047f010000000000000000000000000000000000000000000000000000000000000002828281518110151561058957fe5b9060200101907effffffffffffffffffffffffffffffffffffffffffffffffffffffffffffff1916908160001a9053508080600101915050610518565b81925050509392505050565b6020604051908101604052806000815250905600a165627a7a723058200f25aa4e32c8c994c4f32ffacce9b22592b6614d5c4cd7cffa1fb769c8636c0c0029",
  "source": "pragma solidity ^0.4.4;\n\ncontract Decode{\n    //验证数据入口函数\n    function decode() returns(address){\n        bytes memory sigedString=hex\"6e23c2bf8b734b3bbd319899b1d7b209bacc781d777a1c3916c22ecab6e70483262ee8d51c337bef7b06123bf76f08882fe7e37334fdfee69f8c9419d1f428b101\";\n        bytes32 r = bytesToByes32(slice(sigedString,0,32));\n        bytes32 s = bytesToByes32(slice(sigedString,32,32));\n        byte v = slice(sigedString,64,1)[0];\n        return ecrecoverDecode(r,s,v);\n    }\n    function slice(bytes memory data,uint start,uint len) returns(bytes){\n        bytes memory b = new bytes(len);\n        for(uint i=0;i<len;i++){\n            b[i] = data[i+start];\n        }\n        return b;\n    }\n    //使用ecrecover恢复公钥\n    function ecrecoverDecode(bytes32 r,bytes32 s,byte v1) returns(address addr){\n        uint8 v = uint8(v1)+27;\n        addr = ecrecover(hex\"4e03657aea45a94fc7d47ba826c8d667c0d1e6e33a64a036ec44f58fa12d6c45\",v,r,s);\n    }\n    //byte转换为bytes32\n    function bytesToByes32(bytes memory source) returns(bytes32 result){\n        assembly{\n            result := mload(add(source,32))\n        }\n    }\n}\n\n",
  "sourcePath": "/Users/sujianwei20/Desktop/conference_dapp/contracts/Decode.sol",
  "compiler": {
    "name": "solc",
    "version": "0.4.18+commit.9cf6e910.Emscripten.clang"
  },
  "schemaVersion": "1.0.1",
  "updatedAt": "2017-12-31T08:01:36.505Z"
}