{
  "contractName": "Test",
  "abi": [
    {
      "constant": false,
      "inputs": [],
      "name": "f",
      "outputs": [
        {
          "name": "",
          "type": "string"
        }
      ],
      "payable": false,
      "type": "function",
      "stateMutability": "nonpayable"
    },
    {
      "constant": false,
      "inputs": [],
      "name": "g",
      "outputs": [
        {
          "name": "",
          "type": "string"
        }
      ],
      "payable": false,
      "type": "function",
      "stateMutability": "nonpayable"
    }
  ],
  "bytecode": "0x6060604052341561000f57600080fd5b6102338061001e6000396000f30060606040526004361061004c576000357c0100000000000000000000000000000000000000000000000000000000900463ffffffff16806326121ff014610051578063e2179b8e146100df575b600080fd5b341561005c57600080fd5b61006461016d565b6040518080602001828103825283818151815260200191508051906020019080838360005b838110156100a4578082015181840152602081019050610089565b50505050905090810190601f1680156100d15780820380516001836020036101000a031916815260200191505b509250505060405180910390f35b34156100ea57600080fd5b6100f26101b0565b6040518080602001828103825283818151815260200191508051906020019080838360005b83811015610132578082015181840152602081019050610117565b50505050905090810190601f16801561015f5780820380516001836020036101000a031916815260200191505b509250505060405180910390f35b6101756101f3565b6040805190810160405280600a81526020017f6d6574686f642066282900000000000000000000000000000000000000000000815250905090565b6101b86101f3565b6040805190810160405280600a81526020017f6d6574686f642067282900000000000000000000000000000000000000000000815250905090565b6020604051908101604052806000815250905600a165627a7a72305820074868e9d365af2c54b2ff096242d0cad23e6a31661677ffc70d2a17aea235280029",
  "source": "pragma solidity ^0.4.4;\n\ncontract Test{\n    function f() returns (string){\n        return \"method f()\";\n    }\n    function g() returns (string){\n        return \"method g()\";\n    }\n}\n",
  "sourcePath": "/Users/sujianwei20/Desktop/conference_dapp/contracts/Test.sol",
  "compiler": {
    "name": "solc",
    "version": "0.4.18+commit.9cf6e910.Emscripten.clang"
  },
  "schemaVersion": "1.0.1",
  "updatedAt": "2018-01-01T02:48:58.968Z"
}